:020000040000FA
:040000000EEF00F00F
:020004000000FA
:0400080073EF0EF094
:0400180038EF0CF0C1
:04001C00D06A810E17
:10002000AF6E260EAC6E900EAB6EAC8A010EC26E39
:100030000C0EC16E100EC06EFF0ECB6E300EBA6E7F
:10004000800E516E870ED56E060ECA6E000EB16E12
:10005000000ECD6EF70E936E8A96000E956EFF0E13
:10006000926EF80E966E810E946EE80EF26E800E11
:10007000F16EF06AD08E630E9D6E020EA06E620E5F
:100080009F6E000EA26E5CEC08F0010E3A6E458287
:10009000F0EC02F0F6EC01F04AB663EF00F045AA8E
:1000A0004CEF00F081AE4CEF00F081AC4CEF00F073
:1000B00081AA4CEF00F081A84CEF00F0F80EF26E30
:1000C000459A4CEF00F03A6AF0EC02F0F28AD58ED5
:1000D00045AA68EF00F081AE68EF00F081AC68EFF0
:1000E00000F081AA68EF00F081A868EF00F0E80E48
:1000F000F26E459A68EF00F04ABC8FEC00F045A81C
:1001000091EC00F045B896EC00F012004ABC8FEC80
:1001100000F0070ECA6E0F0EBA6E459812004588A1
:1001200012005150BB18D8A4BB2A1200000EBB18F5
:10013000D8A4A0EF00F0000EBA6E060ECA6E120030
:10014000BB061200040E566E190E346E140E476E66
:100150005A0E356E320E486E500E366E460E496E91
:100160004A861200030E566EF00E1B0E346E160EEB
:10017000476E5A0E356E3C0E486E500E366E3C0E73
:10018000496E4A861200050E566E190E346E140E14
:10019000476E640E356E5A0E486E500E366E460E21
:1001A000496E4A861200ACA2D3EF00F0AD6A12008D
:1001B000315058EC02F0200EAD6ED3EC00F0550E2D
:1001C000AD6ED3EC00F04D0EAD6ED3EC00F0490EE9
:1001D000AD6ED3EC00F0440EAD6ED3EC00F0410EEA
:1001E000AD6ED3EC00F0440EAD6ED3EC00F0450ED6
:1001F000AD6ED3EC00F03A0EAD6ED3EC00F0200EF5
:10020000AD6ED3EC00F04450AD6ED3EC00F0435033
:10021000AD6ED3EC00F0250EAD6ED3EC00F00D0EFC
:10022000AD6ED3EC00F01200335058EC02F0200E0B
:10023000AD6ED3EC00F0540EAD6ED3EC00F0450E75
:10024000AD6ED3EC00F04D0EAD6ED3EC00F0500E61
:10025000AD6ED3EC00F0450EAD6ED3EC00F0520E57
:10026000AD6ED3EC00F0410EAD6ED3EC00F0540E49
:10027000AD6ED3EC00F0550EAD6ED3EC00F0520E27
:10028000AD6ED3EC00F0410EAD6ED3EC00F03A0E43
:10029000AD6ED3EC00F0200EAD6ED3EC00F0445008
:1002A000AD6ED3EC00F04350AD6ED3EC00F0B00E69
:1002B000AD6ED3EC00F0430EAD6ED3EC00F00D0E3E
:1002C000AD6ED3EC00F01200325058EC02F0200E6C
:1002D000AD6ED3EC00F04C0EAD6ED3EC00F0550ECD
:1002E000AD6ED3EC00F04D0EAD6ED3EC00F0490EC8
:1002F000AD6ED3EC00F04E0EAD6ED3EC00F04F0EB1
:10030000AD6ED3EC00F0530EAD6ED3EC00F0490EA1
:10031000AD6ED3EC00F0440EAD6ED3EC00F0410EA8
:10032000AD6ED3EC00F0440EAD6ED3EC00F0450E94
:10033000AD6ED3EC00F03A0EAD6ED3EC00F0200EB3
:10034000AD6ED3EC00F04450AD6ED3EC00F04350F2
:10035000AD6ED3EC00F0250EAD6ED3EC00F00D0EBB
:10036000AD6ED3EC00F01200200EAD6ED3EC00F0B9
:10037000480EAD6ED3EC00F04F0EAD6ED3EC00F036
:10038000520EAD6ED3EC00F0410EAD6ED3EC00F02A
:10039000200EAD6ED3EC00F0440EAD6ED3EC00F049
:1003A000450EAD6ED3EC00F0200EAD6ED3EC00F038
:1003B000430EAD6ED3EC00F04F0EAD6ED3EC00F0FB
:1003C0004C0EAD6ED3EC00F0480EAD6ED3EC00F0E9
:1003D000450EAD6ED3EC00F0520EAD6ED3EC00F0D6
:1003E000AD6E0D0EAD6ED3EC00F01200000E56187F
:1003F000D8B4FFEF01F05606D8B4B4EC01F04AA629
:100400001200030EC26E3EEC02F0C4503F6E070EA7
:10041000C26E3EEC02F0C4503E6E0B0EC26E3EEC5D
:1004200002F0C450406E42EC02F0316E630E316453
:100430001CEF02F0630E316E3F5042EC02F0326E60
:10044000630E326426EF02F0630E326E3E504A8431
:1004500042EC02F0336E1B0E335CD8A83BEC02F08A
:1004600087EC02F0040E3A18D8A4120045A212003C
:1004700043EC07F01200010E335E1200C2B23EEFF1
:1004800002F012003D6A416E4AB44BEF02F0020ED8
:100490003C6E4DEF02F0040E3C6E3C50415ED8A025
:1004A00055EF02F03D2A4DEF02F03D504A94120004
:1004B000426E000E4218D8B483EF02F0D8B47CEF3D
:1004C00002F0436A446A432A4206D8A46CEF02F061
:1004D00075EC02F07FEF02F00A0E4318D8A463EF28
:1004E00002F0436A442A63EF02F00A0E4318D8A4CC
:1004F0001200436A442A1200436A446A1200300E12
:10050000432644261200300E436E446E12002D9C8A
:100510002D9E34502B6E47502C6E3350E5EC02F07C
:100520002DBC84863350EBEC02F02DBE84962D9CBE
:100530002D9E36502B6E49502C6E3250E5EC02F059
:100540002DBCCFEC02F03250EBEC02F02DBEBBEC38
:1005500002F02D9C2D9E35502B6E48502C6E315044
:10056000E5EC02F08FEC00F03150EBEC02F02DBE28
:1005700086EC00F0120045BE120019EC0BF08CEC7A
:100580000AF019EC0BF08CEC0AF019EC0BF08CEC87
:100590000AF019EC0BF08CEC0AF0458E1200A9EC75
:1005A0000BF0A9EC0BF0A9EC0BF0A9EC0BF0A9EC0B
:1005B0000BF0A9EC0BF0A9EC0BF0A9EC0BF0459EAD
:1005C00012002D8C12002D8E12002B5CD8B8E1EF9A
:1005D00002F0396E12002C5CD8A8E3EF02F0120092
:1005E00045BA1200458A2DB43AEC08F02DB632EC2B
:1005F00008F02DB848EC08F045B050EC08F0000EBB
:100600003A18D8B433EF03F0010E3A18D8B4A3EF78
:1006100003F0020E3A18D8B437EF04F0030E3A187C
:10062000D8B43FEF05F0040E3A18D8B416EF07F02F
:10063000050E3A18D8B433EF03F0FF0E3A18D8B4C9
:1006400057EF08F0FE0E3A18D8B457EF08F0060E30
:100650003A18D8B433EF03F02D942D962D98459089
:10066000458A3A501200000E3A6ECCEC08F0800E2B
:10067000D6EC08F053EC09F057EC09F00BEC09F05C
:1006800057EC09F05BEC09F053EC09F03A0ED9ECA9
:1006900008F074EC03F0C00ED6EC08F013EC09F08F
:1006A00043EC09F037EC09F027EC09F01BEC09F0FA
:1006B0002BEC09F057EC09F00BEC09F09BEC09F07E
:1006C0001BEC09F03BEC09F03A0ED9EC08F056505F
:1006D00058EC02F04450D9EC08F04350D9EC08F043
:1006E000459645921DEF03F0000E566289EF03F028
:1006F00013EC09F043EC09F037EC09F027EC09F0B2
:100700001BEC09F02BEC09F057EC09F00BEC09F0AD
:10071000120045A891EF03F043EC09F033EC09F027
:10072000120045B88CEF03F04FEC09F01BEC09F018
:1007300023EC09F00BEC09F03FEC09F017EC09F0A1
:1007400043EC09F0120045B2ECEF03F0CCEC08F0FA
:10075000800ED6EC08F053EC09F01BEC09F037ECF6
:1007600009F01BEC09F013EC09F00BEC09F043EC79
:1007700009F09BEC09F047EC09F037EC09F00BECC1
:1007800009F03FEC09F057EC09F00BEC09F053ECE1
:1007900009F0C00ED6EC08F047EC09F04FEC09F078
:1007A0001BEC09F053EC09F053EC09F02BEC09F0C9
:1007B00043EC09F03FEC09F01BEC09F09BEC09F06D
:1007C0001BEC09F03FEC09F057EC09F01BEC09F0C9
:1007D0004FEC09F01DEF03F0CCEC08F017EC09F03A
:1007E0001BEC09F053EC09F01BEC09F02FEC09F0BD
:1007F0000BEC09F09BEC09F047EC09F037EC09F041
:100800000BEC09F03FEC09F057EC09F00BEC09F0A8
:100810004FEC09F03A0ED9EC08F0000E4618D8B4A7
:10082000E8EF07F0010E4618D8B4FEEF07F0020E0D
:100830004618D8B418EF08F0030E4618D8B4E8EFFD
:1008400007F0FF0E4618D8B418EF08F045B62BEFA6
:1008500004F01DEF03F0B0EC08F04A9A4A98459670
:100860004592000E466E33EF03F01DEF03F045B2E4
:1008700068EF04F0CCEC08F0820ED6EC08F013EC34
:1008800009F043EC09F01FEC09F02BEC09F023EC24
:1008900009F05BEC09F04FEC09F00BEC09F013ECFC
:1008A00009F043EC09F01BEC09F053EC09F0C40E1D
:1008B000D6EC08F053EC09F00BEC09F02BEC09F046
:1008C00017EC09F00BEC09F053EC09F01DEF03F005
:1008D000000E4618D8B481EF04F0010E4618D8B4C3
:1008E00039EF05F0020E4618D8B43BEF05F0030EC1
:1008F0004618D8B481EF04F0FF0E4618D8B43BEF89
:1009000005F045B6CBEF04F0000E466ECCEC08F0D7
:10091000830ED6EC08F013EC09F043EC09F03FEC41
:1009200009F01FEC09F02BEC09F023EC09F05BEC6B
:1009300009F04FEC09F00BEC09F013EC09F00BECAB
:1009400009F043EC09F09BEC09F03BEC09F043ECB7
:1009500009F057EC09F043EC09F04FEC09F0C00E38
:10096000D6EC08F053EC09F057EC09F00BEC09F069
:1009700057EC09F05BEC09F053EC09F03A0ED9ECB6
:1009800008F04AACD9EC04F04ABC22EC05F0D9ECF2
:1009900008F01DEF03F04AB826EF04F02DB6D9ECAD
:1009A00004F02DB422EC05F0C80ED6EC08F01DEFD3
:1009B00003F0CCEC08F0830ED6EC08F013EC09F051
:1009C00043EC09F03FEC09F01FEC09F02BEC09F0C7
:1009D00023EC09F05BEC09F04FEC09F00BEC09F0AB
:1009E00013EC09F00BEC09F043EC09F09BEC09F077
:1009F0003BEC09F043EC09F057EC09F043EC09F04B
:100A00004FEC09F0C00ED6EC08F053EC09F057ECAF
:100A100009F00BEC09F057EC09F05BEC09F053EC32
:100A200009F03A0ED9EC08F0D6EC08F00BEC09F01E
:100A300057EC09F02BEC09F05FEC09F043EC09F0FE
:100A40004A9C1200C70ED6EC08F017EC09F01BEC1C
:100A500009F053EC09F00BEC09F057EC09F02BEC22
:100A600009F05FEC09F043EC09F04A8C12001DEF2D
:100A700003F026EF04F0030E466E26EF04F045B2B5
:100A800074EF05F0CCEC08F0820ED6EC08F013EC15
:100A900009F043EC09F01FEC09F02BEC09F023EC12
:100AA00009F05BEC09F04FEC09F00BEC09F013ECEA
:100AB00009F043EC09F01BEC09F053EC09F0C40E0B
:100AC000D6EC08F053EC09F01BEC09F03FEC09F010
:100AD00053EC09F043EC09F04FEC09F01BEC09F082
:100AE00053EC09F01DEF03F0000E4618D8B48DEF5B
:100AF00005F0010E4618D8B414EF06F0020E4618A1
:100B0000D8B48FEF06F0030E4618D8B48DEF05F079
:100B1000FF0E4618D8B48FEF06F0000E466E45B6AD
:100B2000DAEF05F0CCEC08F0820ED6EC08F045B612
:100B300026EF04F0D6EC08F057EC09F01BEC09F0B6
:100B40003BEC09F047EC09F01BEC09F04FEC09F025
:100B50000BEC09F057EC09F05BEC09F04FEC09F0F5
:100B60000BEC09F09BEC09F0C10ED6EC08F03BEC65
:100B700009F00BEC09F06BEC09F0345058EC02F082
:100B80004450D9EC08F04350D9EC08F0C90ED6EC2B
:100B900008F03BEC09F02BEC09F03FEC09F0475072
:100BA00058EC02F04450D9EC08F04350D9EC08F06E
:100BB00026EF04F04AB8F6EF05F0B4EC08F02DB6D5
:100BC000342A2DB43406C40ED6EC08F0345058EC58
:100BD00002F04450D9EC08F04350D9EC08F0C50EAF
:100BE000D6EC08F0B4EC08F01DEF03F04ABA26EF9B
:100BF00004F0B4EC08F02DB6472A2DB44706CC0E0D
:100C0000D6EC08F0475058EC02F04450D9EC08F00C
:100C10004350D9EC08F0CD0ED6EC08F0B4EC08F057
:100C20001DEF03F026EF04F045B657EF06F0CCECCD
:100C300008F0830ED6EC08F045B626EF04F0D6ECAB
:100C400008F05BEC09F03BEC09F02BEC09F017EC39
:100C500009F00BEC09F017EC09F01BEC09F09BEC28
:100C600009F0C10ED6EC08F03BEC09F00BEC09F0F2
:100C70006BEC09F0355058EC02F04450D9EC08F018
:100C80004350D9EC08F0C90ED6EC08F03BEC09F063
:100C90002BEC09F03FEC09F0485058EC02F04450BE
:100CA000D9EC08F04350D9EC08F026EF04F04AB82C
:100CB00073EF06F0B4EC08F02DB6352A2DB43506E6
:100CC000C40ED6EC08F0355058EC02F04450D9EC84
:100CD00008F04350D9EC08F0C50ED6EC08F0B4EC9F
:100CE00008F01DEF03F04ABA26EF04F0B4EC08F068
:100CF0002DB6482A2DB44806CC0ED6EC08F0485044
:100D000058EC02F04450D9EC08F04350D9EC08F00C
:100D1000CD0ED6EC08F0B4EC08F01DEF03F0020E97
:100D2000466E45B6DEEF06F0CCEC08F0820ED6EC4F
:100D300008F045B626EF04F0D6EC08F037EC09F0E1
:100D40005BEC09F03BEC09F02BEC09F03FEC09F00F
:100D500043EC09F053EC09F02BEC09F017EC09F027
:100D60000BEC09F017EC09F01BEC09F09BEC09F017
:100D7000C10ED6EC08F03BEC09F00BEC09F06BEC83
:100D800009F0365058EC02F04450D9EC08F04350CA
:100D9000D9EC08F0C90ED6EC08F03BEC09F02BECCE
:100DA00009F03FEC09F0495058EC02F04450D9ECFE
:100DB00008F04350D9EC08F026EF04F04AB8FAEFF7
:100DC00006F0B4EC08F02DB6362A2DB43606C40E63
:100DD000D6EC08F0365058EC02F04450D9EC08F04C
:100DE0004350D9EC08F0C50ED6EC08F0B4EC08F08E
:100DF0001DEF03F04ABA26EF04F0B4EC08F02DB66C
:100E0000492A2DB44906CC0ED6EC08F0495058ECCE
:100E100002F04450D9EC08F04350D9EC08F0CD0E64
:100E2000D6EC08F0B4EC08F01DEF03F045B243EF48
:100E300007F0CCEC08F0830ED6EC08F03BEC09F0A0
:100E40001BEC09F017EC09F02BEC09F013EC09F09E
:100E500043EC09F01BEC09F053EC09F0C30ED6EC9F
:100E600008F053EC09F01BEC09F03FEC09F053ECEF
:100E700009F043EC09F04FEC09F01BEC09F053ECDE
:100E800009F01DEF03F0000E4618D8B461EC07F02E
:100E9000010E4618D8B48FEC07F0020E4618D8B4ED
:100EA000B8EC07F0030E4618D8B461EC07F0FF0E5B
:100EB0004618D8B4B8EC07F045B62BEF04F01DEF98
:100EC00003F0000E466ECCEC08F0810ED6EC08F074
:100ED00057EC09F01BEC09F03BEC09F047EC09F08A
:100EE0001BEC09F04FEC09F00BEC09F057EC09F0A2
:100EF0005BEC09F04FEC09F00BEC09F03A0ED9EC81
:100F000008F0335058EC02F04450D9EC08F043504C
:100F1000D9EC08F0430ED9EC08F026EF04F0010EEE
:100F2000466ECCEC08F0810ED6EC08F05BEC09F0D4
:100F30003BEC09F02BEC09F017EC09F00BEC09F095
:100F400017EC09F01BEC09F03A0ED9EC08F0C00ED2
:100F5000D6EC08F0315058EC02F04450D9EC08F0CF
:100F60004350D9EC08F0250ED9EC08F026EF04F038
:100F7000020E466ECCEC08F0810ED6EC08F037EC91
:100F800009F05BEC09F03BEC09F02BEC09F03FECCD
:100F900009F043EC09F053EC09F02BEC09F017ECE5
:100FA00009F00BEC09F017EC09F01BEC09F03A0E14
:100FB000D9EC08F0325058EC02F04450D9EC08F06B
:100FC0004350D9EC08F0250ED9EC08F026EF04F0D8
:100FD000C00ED6EC08F00BEC09F037EC09F01FEC72
:100FE00009F00BEC09F013EC09F01BEC09F0000E12
:100FF000466E45B6A2EC00F026EF04F0C00ED6EC2B
:1010000008F013EC09F01BEC09F00FEC09F043ECCD
:1010100009F037EC09F02BEC09F03FEC09F027EC74
:1010200009F00BEC09F045B6B2EC00F026EF04F045
:10103000020E466EC00ED6EC08F053EC09F00BEC35
:1010400009F037EC09F053EC09F02BEC09F03FEC18
:1010500009F027EC09F00BEC09F045B6C3EC00F001
:1010600026EF04F045B646EF08F045B242EF08F02F
:101070003A2A120045B647EF08F045B244EF08F0AF
:101080003A061200462A120046061200120012000A
:101090004AB84A8A45B64A8845B245864582120012
:1010A00045924A984A9A4596B0EC08F01200040E10
:1010B0003A6E16EF07F01200320EE3EC09F083945B
:1010C0008388838A839C839E8386050EE3EC09F0E4
:1010D0008396010EE3EC09F08386010EE3EC09F040
:1010E0008396010EE3EC09F08386010EE3EC09F030
:1010F0008396010EE3EC09F08398838A839C839E98
:101100008386010EE3EC09F08396010EE3EC09F00F
:10111000280EDDEC08F098EC08F0B0EC08F01200B6
:101120000C0EDDEC08F01200080EDDEC08F01200E9
:10113000060EDDEC08F01200040EDDEC08F01200E3
:10114000050EDDEC08F01200070EDDEC08F01200D1
:101150001C0EDDEC08F01200180EDDEC08F0120099
:101160000C0EDDEC08F012000E0EDDEC08F01200A3
:101170000D0EDDEC08F012000F0EDDEC08F0120091
:10118000140EDDEC08F01200100EDDEC08F0120079
:10119000020EDDEC08F01200010EDDEC08F0020E8C
:1011A000E3EC09F0800EDDEC08F01200DDEC08F055
:1011B00012008384E1EC08F012008394E1EC08F063
:1011C0001200276E8398839A839C839E27B8838816
:1011D00027BA838A27BC838C27BE838E8386010E21
:1011E000E3EC09F08396010EE3EC09F08398839A0F
:1011F000839C839E27B0838827B2838A27B4838CFD
:1012000027B6838E8386010EE3EC09F08396010EE8
:10121000E3EC09F01200410ED9EC08F01200420E86
:10122000D9EC08F01200430ED9EC08F01200440E7D
:10123000D9EC08F01200450ED9EC08F01200460E69
:10124000D9EC08F01200470ED9EC08F01200480E55
:10125000D9EC08F01200490ED9EC08F012004A0E41
:10126000D9EC08F012004B0ED9EC08F012004C0E2D
:10127000D9EC08F012004D0ED9EC08F012004E0E19
:10128000D9EC08F012004F0ED9EC08F01200500E05
:10129000D9EC08F01200510ED9EC08F01200520EF1
:1012A000D9EC08F01200530ED9EC08F01200540EDD
:1012B000D9EC08F01200550ED9EC08F01200560EC9
:1012C000D9EC08F01200570ED9EC08F01200590EB4
:1012D000D9EC08F01200580ED9EC08F012005A0EA2
:1012E000D9EC08F01200300ED9EC08F01200310EE3
:1012F000D9EC08F01200320ED9EC08F01200330ECF
:10130000D9EC08F01200340ED9EC08F01200350EBA
:10131000D9EC08F01200360ED9EC08F01200370EA6
:10132000D9EC08F01200380ED9EC08F01200390E92
:10133000D9EC08F01200200ED9EC08F012002E0EA5
:10134000D9EC08F012002B0ED9EC08F012002D0E8B
:10135000D9EC08F01200140E286E800ED6EC08F0BE
:10136000FF0ED9EC08F0282EB0EF09F0140E286E0D
:10137000C00ED6EC08F0FF0ED9EC08F0282EBBEF1B
:1013800009F0140E286E940ED6EC08F0FF0ED9EC7E
:1013900008F0282EC6EF09F0140E286ED40ED6ECF5
:1013A00008F0FF0ED9EC08F0282ED1EF09F0DCECA4
:1013B00009F0CCEC08F01200320EE3EC09F0120058
:1013C0002550E3EF09F0256E246E2DB0EAEF09F009
:1013D000050E266E2D80A70E236E23062350D8A45B
:1013E000EDEF09F00000000000000000242EEAEFFD
:1013F00009F0262EE0EF09F02D9012008472000013
:1014000000000000847200008472000000000000F0
:1014100084720000847200000000000084720000EA
:1014200084720000000000008472000084720000DA
:1014300000000000847200008472000000000000C0
:1014400084720000847200000000000084720000BA
:1014500084720000847200000000000084720000AA
:10146000847200000000000084720000847200009A
:101470000000000084720000847200000000000080
:10148000847200008472000000000000847200007A
:10149000847200000000000084720000847200006A
:1014A0000000000084720000847200000000000050
:1014B000847200008472000000000000847200004A
:1014C000847200000000000084720000847200003A
:1014D0000000000084720000847200000000000020
:1014E000847200008472000000000000847200001A
:1014F000847200000000000084720000847200000A
:1015000000000000847200008472000000000000EF
:1015100084720000847212008472000084720000E1
:1015200000000000847200008472000000000000CF
:1015300084720000847200000000000084720000C9
:1015400084720000000000008472000084720000B9
:10155000000000008472000084720000000000009F
:101560008472000084720000000000008472000099
:101570008472000000008472000000000000847289
:101580000000847200000000000084720000847279
:10159000000000000000847200008472000000005F
:1015A0000000847200008472000000000000847259
:1015B0000000847200000000000084720000847249
:1015C000000000000000847200008472000000002F
:1015D0000000847200008472000084720000000029
:1015E0000000847200008472000000000000847219
:1015F0000000847200000000000084720000847209
:1016000000000000000084720000847200000000EE
:1016100000008472000084720000000000008472E8
:1016200000008472000000000000847200008472D8
:1016300012008472000084720000000000008472B6
:1016400000008472000000000000847200008472B8
:10165000000000000000847200008472000000009E
:101660000000847200008472000000000000847298
:101670000000847200000000000084720000847288
:10168000000000000000847200008472000000006E
:101690000000847200008472000000000000847268
:1016A0000000847200000000000084720000847258
:1016B000000000000000847200008472000000003E
:1016C0000000847200008472000000000000847238
:1016D0000000847200000000000084720000847228
:1016E000000000000000847200000000000084720E
:1016F0000000847200000000000084720000847208
:1017000000000000000084720000847200000000ED
:1017100000008472000084720000000000008472E7
:1017200000008472000000000000847200008472D7
:1017300000000000000084720000847200000000BD
:1017400000008472000084720000000000008472B7
:101750001200847200008472000000000000847295
:101760000000847200000000000084720000847297
:10177000000000000000847200008472000000007D
:101780000000847200008472000000000000847277
:101790000000847200000000000084720000847267
:1017A000000000000000847200008472000000004D
:1017B0000000847200008472000000000000847247
:1017C0000000847200000000000084720000847237
:1017D000000000000000847200008472000000001D
:1017E0000000847200008472000000000000847217
:1017F0000000847200000000000084720000847207
:1018000000000000000084720000847200000000EC
:1018100000008472000084720000000000008472E6
:1018200000008472000000000000847200008472D6
:1018300000000000000084720000847200000000BC
:1018400000008472000084720000000000008472B6
:1018500000008472000000000000847200008472A6
:10186000000000000000847200008472000012007A
:1018700081AE2D8481AC2D8881AA2D864AA643EFA6
:101880000CF081A84580F2B4F6EC01F0F2B04CEC1B
:101890000CF0F290F2941000F0EC02F01200060E40
:1018A000AB14D8A459EF0CF0E86AAE502F6E07ECD9
:1018B0000DF0AB98AB881200458412004A8C540E90
:1018C000AD6ED3EC00F0520EAD6ED3EC00F0410ED5
:1018D000AD6ED3EC00F0560EAD6ED3EC00F0410EC1
:1018E000AD6ED3EC00F0200EAD6ED3EC00F0440EE4
:1018F000AD6ED3EC00F0450EAD6ED3EC00F0200ED3
:10190000AD6ED3EC00F0530EAD6ED3EC00F0450E8F
:10191000AD6ED3EC00F0470EAD6ED3EC00F0550E7B
:10192000AD6ED3EC00F0520EAD6ED3EC00F0410E74
:10193000AD6ED3EC00F04E0EAD6ED3EC00F0430E66
:10194000AD6ED3EC00F0410EAD6ED3EC00F0200E86
:10195000AD6ED3EC00F0410EAD6ED3EC00F0430E53
:10196000AD6ED3EC00F0490EAD6ED3EC00F04F0E2F
:10197000AD6ED3EC00F04E0EAD6ED3EC00F0410E28
:10198000AD6ED3EC00F0440EAD6ED3EC00F0410E22
:10199000AD6ED3EC00F00D0EAD6ED3EC00F0D2ECDA
:1019A0000CF01200CCEC08F0800ED6EC08F053ECF2
:1019B00009F043EC09F00FEC09F04FEC09F01BECD7
:1019C00009F09BEC09F013EC09F043EC09F04FEC43
:1019D00009F04FEC09F01BEC09F03FEC09F057EC73
:1019E00009F01BEC09F0C30ED6EC08F03FEC09F04F
:1019F00043EC09F09BEC09F03BEC09F043EC09F0F7
:101A000057EC09F043EC09F04FEC09F01200410EDD
:101A1000306E530EAD6ED3EC00F04F0EAD6ED3ECC6
:101A200000F04C0EAD6ED3EC00F0490EAD6ED3EC71
:101A300000F0430EAD6ED3EC00F0490EAD6ED3EC6A
:101A400000F0A2EC00F0540EAD6ED3EC00F0410EAD
:101A5000AD6ED3EC00F0440EAD6ED3EC00F04F0E43
:101A6000AD6ED3EC00F03A0EAD6ED3EC00F02F501B
:101A7000AD6ED3EC00F00D0EAD6ED3EC00F02D8208
:101A80002F503018D8B401EC0EF0302A2F503018F7
:101A9000D8B4A6EC0DF0302A2F503018D8B4D5ECBD
:101AA0000DF0302A2F503018D8B4D8EC00F0302A7E
:101AB0002F503018D8B414EC01F0302A2F503018C1
:101AC000D8B464EC01F0302A2F503018D8B472EC3E
:101AD0000DF0302A2F503018D8B48AEC0DF02D922A
:101AE000306A1200CCEC08F0800ED6EC08F01BEC4B
:101AF00009F04FEC09F04FEC09F043EC09F09BECD6
:101B000009F04FEC09F01BEC09F017EC09F01BECA5
:101B100009F01200CCEC08F0800ED6EC08F01BECBB
:101B200009F04FEC09F04FEC09F043EC09F09BECA5
:101B300009F00FEC09F04FEC09F043EC09F033EC3D
:101B400009F01BEC09F04FEC09F0120025EC0EF047
:101B5000430EAD6ED3EC00F0450EAD6ED3EC00F04D
:101B6000420EAD6ED3EC00F04F0EAD6ED3EC00F034
:101B70004C0EAD6ED3EC00F0490EAD6ED3EC00F020
:101B8000A2EC00F04E0EAD6ED3EC00F0480EAD6E40
:101B9000D3EC00F0410EAD6ED3EC00F00D0EAD6E47
:101BA000D3EC00F0B2EC00F0120025EC0EF0AD6EBC
:101BB000D3EC00F0530EAD6ED3EC00F0410EAD6EE1
:101BC000D3EC00F04C0EAD6ED3EC00F0530EAD6EC6
:101BD000D3EC00F0490EAD6ED3EC00F04E0EAD6EBE
:101BE000D3EC00F0480EAD6ED3EC00F0410EAD6EBC
:101BF000D3EC00F00D0EAD6ED3EC00F0C3EC00F0B2
:101C0000120025EC0EF0AD6ED3EC00F0410EAD6E7F
:101C1000D3EC00F04C0EAD6ED3EC00F0460EAD6E82
:101C2000D3EC00F0410EAD6ED3EC00F0430EAD6E80
:101C3000D3EC00F0450EAD6ED3EC00F00D0EAD6EA2
:101C4000D3EC00F0A2EC00F01200500EAD6ED3EC1D
:101C500000F04C0EAD6ED3EC00F0410EAD6ED3EC47
:101C600000F04E0EAD6ED3EC00F0540EAD6ED3EC22
:101C700000F0410EAD6ED3EC00F0200EAD6ED3EC53
:101C800000F0530EAD6ED3EC00F0450EAD6ED3EC0C
:101C900000F04C0EAD6ED3EC00F0450EAD6ED3EC03
:101CA00000F0430EAD6ED3EC00F0490EAD6ED3ECF8
:101CB00000F04F0EAD6ED3EC00F04E0EAD6ED3ECD7
:101CC00000F0410EAD6ED3EC00F0440EAD6ED3ECDF
:101CD00000F0410EAD6ED3EC00F03A0EAD6ED3ECD9
:061CE00000F0200E1200CE
:0A1CE6009EBA4FEC0CF09EBC5CECC3
:101CF0000CF04ABC7FEF0EF0F2B25EEC0CF09EB23C
:0E1D00007CEC00F0F2929E9C9E929E9C110044
:020000040030CA
:0100000004FB
:010001000CF2
:0100020019E4
:010003001EDE
:0100050001F9
:010006008079
:010008000FE8
:01000900C036
:01000A000FE6
:01000B00E014
:01000C000FE4
:01000D0040B2
:00000001FF
